:0600000002001102060DD2
:03000B0002068961
:03006D0002000E80
:03000E000200707D
:10007000D2B41205B9D2AFC2B57582C41200A712AC
:0600800004D7C2AF80FEB0
:10069500505332204B6579626F61726420496E74E4
:1006A500657266616365205365702032392032308A
:1006B50032342031313A32303A353000436F707977
:1006C50072696768742028432920323030362D320C
:1006D5003032342062792053706172652054696D1F
:1006E500652047697A6D6F732E20416C6C207269A5
:0F06F500676874732072657365727665642E0092
:03006A00752100FD
:100086001205D6AE82AF838E048F05BEFF05BFFF75
:100096000280038C8222E52054F060E41205B980C8
:1000A600DF858290D2B5C2B430B3FDD2B4C2B522D8
:1000B600AF82BF0002801DBFAA028018BFEE028079
:1000C60013BFFA02800EBFFE028009BFFF02800442
:1000D6007582002275820122AF8220B00CBF5804BF
:1000E6007F148005BF14027F58BF11028051BF12D2
:1000F600028019BF1402802ABF1F028046BF270252
:100106008041BF5802802EBF593D800BE526B401C1
:1001160000920875820122E526B4010092097582D3
:100126000122E527600475820022E526B4010092CB
:100136000A75820122E5267012B20B7582012275BC
:10014600820122758200227582002275820022AF0A
:1001560082BF6900500302026AEF24825003020242
:100166006AEF2497FF240A83F582EF241983F58327
:10017600E473B06ADA046A6A6AA22EBEE8F6126A04
:10018600666A58CC4A3C20010201020202020102C0
:10019600010101020202020201020202E5087006E2
:1001A6007582A01200A775820122E5087006758285
:1001B600A11200A775820122E50870067582A212B7
:1001C60000A775820122E50870067582A31200A7B2
:1001D60075820122E50870067582A41200A7758251
:1001E6000122E50870067582A51200A77582012214
:1001F600E50870067582A61200A775820122E50839
:1002060070067582A71200A775820122E50870069E
:100216007582A81200A775820122E508700675820C
:10022600A91200A775820122E50870067582AA1236
:1002360000A775820122E50870067582AD1200A737
:1002460075820122E50870067582AE1200A77582D6
:100256000122E50870067582AB1200A7758201229D
:100266007582012275820022120086AF827509000E
:10027600BFF008750901120086AF82BF11030203A1
:100286006ABF120122BF140302036ABF1F030203DF
:100296007FBF270302037FBF2F03020375BF4A03F5
:1002A600020360BF5A03020356BF6903020318BF65
:1002B6006B028053BF6C03020323BF700302032E3D
:1002C600BF7103020338BF72028026BF7402802CFE
:1002D600BF75028011BF7A03020342BF7C0122BFB1
:1002E6007D0302034C22E50960012275829002001B
:1002F600A7E5096001227582910200A7E509600160
:10030600227582920200A7E5096001227582930296
:1003160000A7E5096001227582960200A7E509603B
:1003260001227582970200A7E50970587582980226
:1003360000A7E509704E75829B0200A7E509704487
:100346007582990200A7E509703A75829A0200A79C
:10035600E50970307582AF0200A7E509702675823F
:10036600AC0200A78509267527018F820200DEE50B
:100376000970117582950200A78509267527018FD8
:10038600820200DE22AF82BF0103020442BF0303E2
:1003960002040ABF04028050BF0502802FBF060276
:1003A6008038BF070302046CBF0903020450BF0A6A
:1003B60003020434BF0B028059BF0C028038BF7899
:1003C6000302045EBF8302805702047AE50A7006C0
:1003D6007582811200A775820122E50A7006758270
:1003E600821200A775820122E50A700675828312C1
:1003F60000A775820122E50A70067582841200A79D
:1004060075820122E50A70067582851200A775823B
:100416000122E50A70067582861200A775820122FE
:10042600E50A70067582871200A775820122E50A21
:1004360070067582881200A775820122E50A700689
:100446007582891200A775820122E50A70067582F7
:100456008A1200A775820122E50A700675828B1240
:1004660000A775820122E50A700675828C1200A724
:100476007582012275820022AF82A2087209500697
:100486007D017E0080047D007E00300A0343050264
:10049600EF75F004A42404FE740735F0FFED2EF585
:1004A60082E43FF583E493FF7003F58222E50B6057
:1004B600047582012253077F300B0DBF610040088F
:1004C600EF248540035307DF8F821200A775820150
:1004D60022752100120086AF827E00C007C0061278
:1004E60000B6E582D006D00770EABFE00512026EBC
:1004F60080E2BFE140120086AD82BD14D7120086AD
:10050600AD82BD77CF120086AD82BDE1C7120086EF
:10051600AD82BDF0BF120086AD82BD14B712008653
:10052600AD82BDF0AF120086AD82BD77A775828021
:100536001200A7809FBFF00B7E01C006120086AF97
:1005460082D006BF770CEE708B75828E1200A702E2
:1005560004DABF7E0FEE60030204DA75828D1200A4
:10056600A70204DA8E267527008F82C007C00612FE
:1005760000DEE582D006D00760030204DA8E0A8F19
:1005860082C007C00612038BE582D006D00760033F
:100596000204DA8E088F82C007C006120155E58272
:1005A600D006D00760030204DA8E0B8F8212047E17
:0305B6000204DA62
:1007040000000000000000000000000000000000E5
:1007140000000000000000000000000000000000D5
:1007240000000000000000000000000000000000C5
:100734000000000009090000607E000000000000C5
:1007440000000000000000000000000000000000A5
:100754000000000071511100312100000000000070
:1007640000000000000000007A5A1A0073531300BE
:1007740061410100775717003240008000000000FB
:100784000000000063430300785818006444040028
:1007940065450500342400003323000000000000F8
:1007A4000000000020200000765616006646060071
:1007B4007454140072521200352500000000000029
:1007C400000000006E4E0E006242020068480800FD
:1007D4006747070079591900365E001E00000000C3
:1007E40000000000000000006D4D0D006A4A0A0080
:1007F4007555150037260000382A00000000000057
:10080400000000002C3C00006B4B0B006949090000
:100814006F4F0F003029000039280000000000004D
:10082400000000002E3E00002F3F00006C4C0C0026
:100834003B3A0000705010002D5F001F00000000C4
:10084400000000000000000027220000000000005B
:100854005B7B1B003D2B000000000000000000003B
:1008640000000000000000000D0D00005D7D1D0073
:10087400000000005C7C1C00000000000000000080
:100884000000000000000000000000000000000064
:100894000000000000000000080800000000000044
:1008A40000000000310000000000000034000000DF
:1008B40037000000000000000000000000000000FD
:1008C400300000002E00000032000000350000005F
:1008D40036000000380000001B1B00000000000070
:1008E400000000002B000000330000002D00000079
:1008F4002A00000039000000000000000000000091
:1005B9007400F50EF50FF50CF5205389F043890108
:1005C900C28CD2A9D2B2D2B7D288D2A822C2A8E507
:1005D9000EB50F09D2A87582FF7583FF2204540F47
:1005E900F50E2410F8E6D2A8F58275830022E50FEE
:1005F90004540FB50F02C10AF50F2410F8E50DF6E2
:1006090022D20422C0D0C0E0C000C083C0829006BC
:100619001EE50C2373C136C151C151C151C151C12C
:1006290051C151C151C151C15AC16EC17E20B711C9
:10063900D200750D00758CF8758ACEC28DD28CC129
:100649007CD206750C0BC17EE50DA2B713F50DC161
:100659007CE50D20D00530B705C17C30B715D20532
:10066900750C0BC17EC200C28C30B7D5B1F7750CC1
:1006790000C17E050CD082D083D000D0E0D0D0322A
:08068900D207C200750C00321B
:06004000E478FFF6D8FD94
:10001E007900E94400601B7A00900904780175A00C
:10002E0000E493F2A308B8000205A0D9F4DAF27541
:02003E00A0FF21
:100046007800E84400600A790175A000E4F309D855
:10005600FC7800E84400600C7900900001E4F0A30D
:04006600D8FCD9FAEF
:0D001100758127120691E582600302000E42
:04069100758200224C
:00000001FF
